{
  "_format": "hh-sol-artifact-1",
  "contractName": "Liquidity",
  "sourceName": "contracts/Liquidity.sol",
  "abi": [
    {
      "anonymous": false,
      "inputs": [
        {
          "indexed": false,
          "internalType": "string",
          "name": "message",
          "type": "string"
        },
        {
          "indexed": false,
          "internalType": "uint256",
          "name": "val",
          "type": "uint256"
        }
      ],
      "name": "Log",
      "type": "event"
    },
    {
      "inputs": [
        {
          "internalType": "address",
          "name": "_tokenA",
          "type": "address"
        },
        {
          "internalType": "address",
          "name": "_tokenB",
          "type": "address"
        },
        {
          "internalType": "uint256",
          "name": "_amountA",
          "type": "uint256"
        },
        {
          "internalType": "uint256",
          "name": "_amountB",
          "type": "uint256"
        }
      ],
      "name": "addLiquidity",
      "outputs": [],
      "stateMutability": "nonpayable",
      "type": "function"
    },
    {
      "inputs": [
        {
          "internalType": "address",
          "name": "_tokenA",
          "type": "address"
        },
        {
          "internalType": "address",
          "name": "_tokenB",
          "type": "address"
        }
      ],
      "name": "removeLiquidity",
      "outputs": [],
      "stateMutability": "nonpayable",
      "type": "function"
    }
  ],
  "bytecode": "0x608060405234801561001057600080fd5b50610d55806100206000396000f3fe608060405234801561001057600080fd5b50600436106100365760003560e01c80639cf38f7c1461003b578063cf6c62ea14610057575b600080fd5b610055600480360381019061005091906107ca565b610073565b005b610071600480360381019061006c9190610806565b61036d565b005b6000735fbdb2315678afecb367f032d93f642f64180aa373ffffffffffffffffffffffffffffffffffffffff1663e6a4390584846040518363ffffffff1660e01b81526004016100c4929190610a5d565b60206040518083038186803b1580156100dc57600080fd5b505afa1580156100f0573d6000803e3d6000fd5b505050506040513d601f19601f8201168201806040525081019061011491906107a1565b905060008173ffffffffffffffffffffffffffffffffffffffff166370a08231306040518263ffffffff1660e01b81526004016101519190610a42565b60206040518083038186803b15801561016957600080fd5b505afa15801561017d573d6000803e3d6000fd5b505050506040513d601f19601f820116820180604052508101906101a19190610892565b90508173ffffffffffffffffffffffffffffffffffffffff1663095ea7b3739fe46736679d2d9a65f0992f2272de9f3c7fa6e0836040518363ffffffff1660e01b81526004016101f2929190610baa565b602060405180830381600087803b15801561020c57600080fd5b505af1158015610220573d6000803e3d6000fd5b505050506040513d601f19601f820116820180604052508101906102449190610869565b50600080739fe46736679d2d9a65f0992f2272de9f3c7fa6e073ffffffffffffffffffffffffffffffffffffffff1663baa2abde87878660018030426040518863ffffffff1660e01b81526004016102a29796959493929190610abd565b6040805180830381600087803b1580156102bb57600080fd5b505af11580156102cf573d6000803e3d6000fd5b505050506040513d601f19601f820116820180604052508101906102f391906108bb565b915091507fdd970dd9b5bfe707922155b058a407655cb18288b807e2216442bca8ad83d6b5826040516103269190610bd3565b60405180910390a17fdd970dd9b5bfe707922155b058a407655cb18288b807e2216442bca8ad83d6b58160405161035d9190610c01565b60405180910390a1505050505050565b8373ffffffffffffffffffffffffffffffffffffffff166323b872dd3330856040518463ffffffff1660e01b81526004016103aa93929190610a86565b602060405180830381600087803b1580156103c457600080fd5b505af11580156103d8573d6000803e3d6000fd5b505050506040513d601f19601f820116820180604052508101906103fc9190610869565b508273ffffffffffffffffffffffffffffffffffffffff166323b872dd3330846040518463ffffffff1660e01b815260040161043a93929190610a86565b602060405180830381600087803b15801561045457600080fd5b505af1158015610468573d6000803e3d6000fd5b505050506040513d601f19601f8201168201806040525081019061048c9190610869565b508373ffffffffffffffffffffffffffffffffffffffff1663095ea7b3739fe46736679d2d9a65f0992f2272de9f3c7fa6e0846040518363ffffffff1660e01b81526004016104dc929190610baa565b602060405180830381600087803b1580156104f657600080fd5b505af115801561050a573d6000803e3d6000fd5b505050506040513d601f19601f8201168201806040525081019061052e9190610869565b508273ffffffffffffffffffffffffffffffffffffffff1663095ea7b3739fe46736679d2d9a65f0992f2272de9f3c7fa6e0836040518363ffffffff1660e01b815260040161057e929190610baa565b602060405180830381600087803b15801561059857600080fd5b505af11580156105ac573d6000803e3d6000fd5b505050506040513d601f19601f820116820180604052508101906105d09190610869565b506000806000739fe46736679d2d9a65f0992f2272de9f3c7fa6e073ffffffffffffffffffffffffffffffffffffffff1663e8e337008888888860008030426040518963ffffffff1660e01b8152600401610632989796959493929190610b2c565b606060405180830381600087803b15801561064c57600080fd5b505af1158015610660573d6000803e3d6000fd5b505050506040513d601f19601f8201168201806040525081019061068491906108f7565b9250925092507fdd970dd9b5bfe707922155b058a407655cb18288b807e2216442bca8ad83d6b5836040516106b99190610bd3565b60405180910390a17fdd970dd9b5bfe707922155b058a407655cb18288b807e2216442bca8ad83d6b5826040516106f09190610c01565b60405180910390a17fdd970dd9b5bfe707922155b058a407655cb18288b807e2216442bca8ad83d6b5816040516107279190610c2f565b60405180910390a150505050505050565b60008135905061074781610cda565b92915050565b60008151905061075c81610cda565b92915050565b60008151905061077181610cf1565b92915050565b60008135905061078681610d08565b92915050565b60008151905061079b81610d08565b92915050565b6000602082840312156107b357600080fd5b60006107c18482850161074d565b91505092915050565b600080604083850312156107dd57600080fd5b60006107eb85828601610738565b92505060206107fc85828601610738565b9150509250929050565b6000806000806080858703121561081c57600080fd5b600061082a87828801610738565b945050602061083b87828801610738565b935050604061084c87828801610777565b925050606061085d87828801610777565b91505092959194509250565b60006020828403121561087b57600080fd5b600061088984828501610762565b91505092915050565b6000602082840312156108a457600080fd5b60006108b28482850161078c565b91505092915050565b600080604083850312156108ce57600080fd5b60006108dc8582860161078c565b92505060206108ed8582860161078c565b9150509250929050565b60008060006060848603121561090c57600080fd5b600061091a8682870161078c565b935050602061092b8682870161078c565b925050604061093c8682870161078c565b9150509250925092565b61094f81610c6e565b82525050565b61095e81610cb6565b82525050565b61096d81610cc8565b82525050565b6000610980600783610c5d565b91507f616d6f756e7441000000000000000000000000000000000000000000000000006000830152602082019050919050565b60006109c0600783610c5d565b91507f616d6f756e7442000000000000000000000000000000000000000000000000006000830152602082019050919050565b6000610a00600983610c5d565b91507f6c697175696469747900000000000000000000000000000000000000000000006000830152602082019050919050565b610a3c81610cac565b82525050565b6000602082019050610a576000830184610946565b92915050565b6000604082019050610a726000830185610946565b610a7f6020830184610946565b9392505050565b6000606082019050610a9b6000830186610946565b610aa86020830185610946565b610ab56040830184610a33565b949350505050565b600060e082019050610ad2600083018a610946565b610adf6020830189610946565b610aec6040830188610a33565b610af96060830187610964565b610b066080830186610964565b610b1360a0830185610946565b610b2060c0830184610a33565b98975050505050505050565b600061010082019050610b42600083018b610946565b610b4f602083018a610946565b610b5c6040830189610a33565b610b696060830188610a33565b610b766080830187610955565b610b8360a0830186610955565b610b9060c0830185610946565b610b9d60e0830184610a33565b9998505050505050505050565b6000604082019050610bbf6000830185610946565b610bcc6020830184610a33565b9392505050565b60006040820190508181036000830152610bec81610973565b9050610bfb6020830184610a33565b92915050565b60006040820190508181036000830152610c1a816109b3565b9050610c296020830184610a33565b92915050565b60006040820190508181036000830152610c48816109f3565b9050610c576020830184610a33565b92915050565b600082825260208201905092915050565b6000610c7982610c8c565b9050919050565b60008115159050919050565b600073ffffffffffffffffffffffffffffffffffffffff82169050919050565b6000819050919050565b6000610cc182610cac565b9050919050565b6000610cd382610cac565b9050919050565b610ce381610c6e565b8114610cee57600080fd5b50565b610cfa81610c80565b8114610d0557600080fd5b50565b610d1181610cac565b8114610d1c57600080fd5b5056fea26469706673582212201a75759a4edfe4268183475ba50d5e50d8bfb462e5d422612a65580a6bddcae664736f6c63430008000033",
  "linkReferences": {},
  "deployedLinkReferences": {}
}